{
	"contracts/array.sol": {
		"ArrayRemoveByShifting": {
			"abi": [
				{
					"inputs": [
						{
							"internalType": "uint256",
							"name": "",
							"type": "uint256"
						}
					],
					"name": "arr",
					"outputs": [
						{
							"internalType": "uint256",
							"name": "",
							"type": "uint256"
						}
					],
					"stateMutability": "view",
					"type": "function"
				},
				{
					"inputs": [
						{
							"internalType": "uint256",
							"name": "_index",
							"type": "uint256"
						}
					],
					"name": "remove",
					"outputs": [],
					"stateMutability": "nonpayable",
					"type": "function"
				},
				{
					"inputs": [],
					"name": "test",
					"outputs": [],
					"stateMutability": "nonpayable",
					"type": "function"
				}
			],
			"devdoc": {
				"kind": "dev",
				"methods": {},
				"version": 1
			},
			"evm": {
				"assembly": "    /* \"contracts/array.sol\":1368:2269  contract ArrayRemoveByShifting {... */\n  mstore(0x40, 0x80)\n  callvalue\n  dup1\n  iszero\n  tag_1\n  jumpi\n  0x00\n  dup1\n  revert\ntag_1:\n  pop\n  dataSize(sub_0)\n  dup1\n  dataOffset(sub_0)\n  0x00\n  codecopy\n  0x00\n  return\nstop\n\nsub_0: assembly {\n        /* \"contracts/array.sol\":1368:2269  contract ArrayRemoveByShifting {... */\n      mstore(0x40, 0x80)\n      callvalue\n      dup1\n      iszero\n      tag_1\n      jumpi\n      0x00\n      dup1\n      revert\n    tag_1:\n      pop\n      jumpi(tag_2, lt(calldatasize, 0x04))\n      shr(0xe0, calldataload(0x00))\n      dup1\n      0x4cc82215\n      eq\n      tag_3\n      jumpi\n      dup1\n      0x71e5ee5f\n      eq\n      tag_4\n      jumpi\n      dup1\n      0xf8a8fd6d\n      eq\n      tag_5\n      jumpi\n    tag_2:\n      0x00\n      dup1\n      revert\n        /* \"contracts/array.sol\":1691:1920  function remove(uint256 _index) public {... */\n    tag_3:\n      tag_6\n      0x04\n      dup1\n      calldatasize\n      sub\n      dup2\n      add\n      swap1\n      tag_7\n      swap2\n      swap1\n      tag_8\n      jump\t// in\n    tag_7:\n      tag_9\n      jump\t// in\n    tag_6:\n      stop\n        /* \"contracts/array.sol\":1664:1684  uint256[] public arr */\n    tag_4:\n      tag_10\n      0x04\n      dup1\n      calldatasize\n      sub\n      dup2\n      add\n      swap1\n      tag_11\n      swap2\n      swap1\n      tag_8\n      jump\t// in\n    tag_11:\n      tag_12\n      jump\t// in\n    tag_10:\n      mload(0x40)\n      tag_13\n      swap2\n      swap1\n      tag_14\n      jump\t// in\n    tag_13:\n      mload(0x40)\n      dup1\n      swap2\n      sub\n      swap1\n      return\n        /* \"contracts/array.sol\":1926:2267  function test() external {... */\n    tag_5:\n      tag_15\n      tag_16\n      jump\t// in\n    tag_15:\n      stop\n        /* \"contracts/array.sol\":1691:1920  function remove(uint256 _index) public {... */\n    tag_9:\n        /* \"contracts/array.sol\":1757:1760  arr */\n      0x00\n        /* \"contracts/array.sol\":1757:1767  arr.length */\n      dup1\n      sload\n      swap1\n      pop\n        /* \"contracts/array.sol\":1748:1754  _index */\n      dup2\n        /* \"contracts/array.sol\":1748:1767  _index < arr.length */\n      lt\n        /* \"contracts/array.sol\":1740:1790  require(_index < arr.length, \"index out of bound\") */\n      tag_18\n      jumpi\n      mload(0x40)\n      0x08c379a000000000000000000000000000000000000000000000000000000000\n      dup2\n      mstore\n      0x04\n      add\n      tag_19\n      swap1\n      tag_20\n      jump\t// in\n    tag_19:\n      mload(0x40)\n      dup1\n      swap2\n      sub\n      swap1\n      revert\n    tag_18:\n        /* \"contracts/array.sol\":1806:1815  uint256 i */\n      0x00\n        /* \"contracts/array.sol\":1818:1824  _index */\n      dup2\n        /* \"contracts/array.sol\":1806:1824  uint256 i = _index */\n      swap1\n      pop\n        /* \"contracts/array.sol\":1801:1895  for (uint256 i = _index; i < arr.length - 1; i++) {... */\n    tag_21:\n        /* \"contracts/array.sol\":1843:1844  1 */\n      0x01\n        /* \"contracts/array.sol\":1830:1833  arr */\n      0x00\n        /* \"contracts/array.sol\":1830:1840  arr.length */\n      dup1\n      sload\n      swap1\n      pop\n        /* \"contracts/array.sol\":1830:1844  arr.length - 1 */\n      tag_24\n      swap2\n      swap1\n      tag_25\n      jump\t// in\n    tag_24:\n        /* \"contracts/array.sol\":1826:1827  i */\n      dup2\n        /* \"contracts/array.sol\":1826:1844  i < arr.length - 1 */\n      lt\n        /* \"contracts/array.sol\":1801:1895  for (uint256 i = _index; i < arr.length - 1; i++) {... */\n      iszero\n      tag_22\n      jumpi\n        /* \"contracts/array.sol\":1874:1877  arr */\n      0x00\n        /* \"contracts/array.sol\":1882:1883  1 */\n      0x01\n        /* \"contracts/array.sol\":1878:1879  i */\n      dup3\n        /* \"contracts/array.sol\":1878:1883  i + 1 */\n      tag_26\n      swap2\n      swap1\n      tag_27\n      jump\t// in\n    tag_26:\n        /* \"contracts/array.sol\":1874:1884  arr[i + 1] */\n      dup2\n      sload\n      dup2\n      lt\n      tag_28\n      jumpi\n      tag_29\n      tag_30\n      jump\t// in\n    tag_29:\n    tag_28:\n      swap1\n      0x00\n      mstore\n      keccak256(0x00, 0x20)\n      add\n      sload\n        /* \"contracts/array.sol\":1865:1868  arr */\n      0x00\n        /* \"contracts/array.sol\":1869:1870  i */\n      dup3\n        /* \"contracts/array.sol\":1865:1871  arr[i] */\n      dup2\n      sload\n      dup2\n      lt\n      tag_32\n      jumpi\n      tag_33\n      tag_30\n      jump\t// in\n    tag_33:\n    tag_32:\n      swap1\n      0x00\n      mstore\n      keccak256(0x00, 0x20)\n      add\n        /* \"contracts/array.sol\":1865:1884  arr[i] = arr[i + 1] */\n      dup2\n      swap1\n      sstore\n      pop\n        /* \"contracts/array.sol\":1846:1849  i++ */\n      dup1\n      dup1\n      0x01\n      add\n      swap2\n      pop\n      pop\n        /* \"contracts/array.sol\":1801:1895  for (uint256 i = _index; i < arr.length - 1; i++) {... */\n      jump(tag_21)\n    tag_22:\n      pop\n        /* \"contracts/array.sol\":1904:1907  arr */\n      0x00\n        /* \"contracts/array.sol\":1904:1913  arr.pop() */\n      dup1\n      sload\n      dup1\n      tag_35\n      jumpi\n      tag_36\n      tag_37\n      jump\t// in\n    tag_36:\n    tag_35:\n      0x01\n      swap1\n      sub\n      dup2\n      dup2\n      swap1\n      0x00\n      mstore\n      keccak256(0x00, 0x20)\n      add\n      0x00\n      swap1\n      sstore\n      swap1\n      sstore\n        /* \"contracts/array.sol\":1691:1920  function remove(uint256 _index) public {... */\n      pop\n      jump\t// out\n        /* \"contracts/array.sol\":1664:1684  uint256[] public arr */\n    tag_12:\n      0x00\n      dup2\n      dup2\n      sload\n      dup2\n      lt\n      tag_39\n      jumpi\n      0x00\n      dup1\n      revert\n    tag_39:\n      swap1\n      0x00\n      mstore\n      keccak256(0x00, 0x20)\n      add\n      0x00\n      swap2\n      pop\n      swap1\n      pop\n      sload\n      dup2\n      jump\t// out\n        /* \"contracts/array.sol\":1926:2267  function test() external {... */\n    tag_16:\n        /* \"contracts/array.sol\":1961:1982  arr = [1, 2, 3, 4, 5] */\n      mload(0x40)\n      dup1\n      0xa0\n      add\n      0x40\n      mstore\n      dup1\n        /* \"contracts/array.sol\":1968:1969  1 */\n      0x01\n        /* \"contracts/array.sol\":1961:1982  arr = [1, 2, 3, 4, 5] */\n      0xff\n      and\n      dup2\n      mstore\n      0x20\n      add\n        /* \"contracts/array.sol\":1971:1972  2 */\n      0x02\n        /* \"contracts/array.sol\":1961:1982  arr = [1, 2, 3, 4, 5] */\n      0xff\n      and\n      dup2\n      mstore\n      0x20\n      add\n        /* \"contracts/array.sol\":1974:1975  3 */\n      0x03\n        /* \"contracts/array.sol\":1961:1982  arr = [1, 2, 3, 4, 5] */\n      0xff\n      and\n      dup2\n      mstore\n      0x20\n      add\n        /* \"contracts/array.sol\":1977:1978  4 */\n      0x04\n        /* \"contracts/array.sol\":1961:1982  arr = [1, 2, 3, 4, 5] */\n      0xff\n      and\n      dup2\n      mstore\n      0x20\n      add\n        /* \"contracts/array.sol\":1980:1981  5 */\n      0x05\n        /* \"contracts/array.sol\":1961:1982  arr = [1, 2, 3, 4, 5] */\n      0xff\n      and\n      dup2\n      mstore\n      pop\n        /* \"contracts/array.sol\":1961:1964  arr */\n      0x00\n        /* \"contracts/array.sol\":1961:1982  arr = [1, 2, 3, 4, 5] */\n      swap1\n      0x05\n      tag_42\n      swap3\n      swap2\n      swap1\n      tag_43\n      jump\t// in\n    tag_42:\n      pop\n        /* \"contracts/array.sol\":1992:2001  remove(2) */\n      tag_44\n        /* \"contracts/array.sol\":1999:2000  2 */\n      0x02\n        /* \"contracts/array.sol\":1992:1998  remove */\n      tag_9\n        /* \"contracts/array.sol\":1992:2001  remove(2) */\n      jump\t// in\n    tag_44:\n        /* \"contracts/array.sol\":2052:2053  1 */\n      0x01\n        /* \"contracts/array.sol\":2042:2045  arr */\n      0x00\n        /* \"contracts/array.sol\":2046:2047  0 */\n      dup1\n        /* \"contracts/array.sol\":2042:2048  arr[0] */\n      dup2\n      sload\n      dup2\n      lt\n      tag_45\n      jumpi\n      tag_46\n      tag_30\n      jump\t// in\n    tag_46:\n    tag_45:\n      swap1\n      0x00\n      mstore\n      keccak256(0x00, 0x20)\n      add\n      sload\n        /* \"contracts/array.sol\":2042:2053  arr[0] == 1 */\n      eq\n        /* \"contracts/array.sol\":2035:2054  assert(arr[0] == 1) */\n      tag_48\n      jumpi\n      tag_49\n      tag_50\n      jump\t// in\n    tag_49:\n    tag_48:\n        /* \"contracts/array.sol\":2081:2082  2 */\n      0x02\n        /* \"contracts/array.sol\":2071:2074  arr */\n      0x00\n        /* \"contracts/array.sol\":2075:2076  1 */\n      0x01\n        /* \"contracts/array.sol\":2071:2077  arr[1] */\n      dup2\n      sload\n      dup2\n      lt\n      tag_51\n      jumpi\n      tag_52\n      tag_30\n      jump\t// in\n    tag_52:\n    tag_51:\n      swap1\n      0x00\n      mstore\n      keccak256(0x00, 0x20)\n      add\n      sload\n        /* \"contracts/array.sol\":2071:2082  arr[1] == 2 */\n      eq\n        /* \"contracts/array.sol\":2064:2083  assert(arr[1] == 2) */\n      tag_54\n      jumpi\n      tag_55\n      tag_50\n      jump\t// in\n    tag_55:\n    tag_54:\n        /* \"contracts/array.sol\":2110:2111  4 */\n      0x04\n        /* \"contracts/array.sol\":2100:2103  arr */\n      0x00\n        /* \"contracts/array.sol\":2104:2105  2 */\n      0x02\n        /* \"contracts/array.sol\":2100:2106  arr[2] */\n      dup2\n      sload\n      dup2\n      lt\n      tag_56\n      jumpi\n      tag_57\n      tag_30\n      jump\t// in\n    tag_57:\n    tag_56:\n      swap1\n      0x00\n      mstore\n      keccak256(0x00, 0x20)\n      add\n      sload\n        /* \"contracts/array.sol\":2100:2111  arr[2] == 4 */\n      eq\n        /* \"contracts/array.sol\":2093:2112  assert(arr[2] == 4) */\n      tag_59\n      jumpi\n      tag_60\n      tag_50\n      jump\t// in\n    tag_60:\n    tag_59:\n        /* \"contracts/array.sol\":2139:2140  5 */\n      0x05\n        /* \"contracts/array.sol\":2129:2132  arr */\n      0x00\n        /* \"contracts/array.sol\":2133:2134  3 */\n      0x03\n        /* \"contracts/array.sol\":2129:2135  arr[3] */\n      dup2\n      sload\n      dup2\n      lt\n      tag_61\n      jumpi\n      tag_62\n      tag_30\n      jump\t// in\n    tag_62:\n    tag_61:\n      swap1\n      0x00\n      mstore\n      keccak256(0x00, 0x20)\n      add\n      sload\n        /* \"contracts/array.sol\":2129:2140  arr[3] == 5 */\n      eq\n        /* \"contracts/array.sol\":2122:2141  assert(arr[3] == 5) */\n      tag_64\n      jumpi\n      tag_65\n      tag_50\n      jump\t// in\n    tag_65:\n    tag_64:\n        /* \"contracts/array.sol\":2172:2173  4 */\n      0x04\n        /* \"contracts/array.sol\":2158:2161  arr */\n      0x00\n        /* \"contracts/array.sol\":2158:2168  arr.length */\n      dup1\n      sload\n      swap1\n      pop\n        /* \"contracts/array.sol\":2158:2173  arr.length == 4 */\n      eq\n        /* \"contracts/array.sol\":2151:2174  assert(arr.length == 4) */\n      tag_66\n      jumpi\n      tag_67\n      tag_50\n      jump\t// in\n    tag_67:\n    tag_66:\n        /* \"contracts/array.sol\":2185:2194  arr = [1] */\n      mload(0x40)\n      dup1\n      0x20\n      add\n      0x40\n      mstore\n      dup1\n        /* \"contracts/array.sol\":2192:2193  1 */\n      0x01\n        /* \"contracts/array.sol\":2185:2194  arr = [1] */\n      0xff\n      and\n      dup2\n      mstore\n      pop\n        /* \"contracts/array.sol\":2185:2188  arr */\n      0x00\n        /* \"contracts/array.sol\":2185:2194  arr = [1] */\n      swap1\n      0x01\n      tag_68\n      swap3\n      swap2\n      swap1\n      tag_69\n      jump\t// in\n    tag_68:\n      pop\n        /* \"contracts/array.sol\":2204:2213  remove(0) */\n      tag_70\n        /* \"contracts/array.sol\":2211:2212  0 */\n      0x00\n        /* \"contracts/array.sol\":2204:2210  remove */\n      tag_9\n        /* \"contracts/array.sol\":2204:2213  remove(0) */\n      jump\t// in\n    tag_70:\n        /* \"contracts/array.sol\":2258:2259  0 */\n      0x00\n        /* \"contracts/array.sol\":2244:2247  arr */\n      dup1\n        /* \"contracts/array.sol\":2244:2254  arr.length */\n      dup1\n      sload\n      swap1\n      pop\n        /* \"contracts/array.sol\":2244:2259  arr.length == 0 */\n      eq\n        /* \"contracts/array.sol\":2237:2260  assert(arr.length == 0) */\n      tag_71\n      jumpi\n      tag_72\n      tag_50\n      jump\t// in\n    tag_72:\n    tag_71:\n        /* \"contracts/array.sol\":1926:2267  function test() external {... */\n      jump\t// out\n    tag_43:\n      dup3\n      dup1\n      sload\n      dup3\n      dup3\n      sstore\n      swap1\n      0x00\n      mstore\n      keccak256(0x00, 0x20)\n      swap1\n      dup2\n      add\n      swap3\n      dup3\n      iszero\n      tag_73\n      jumpi\n      swap2\n      0x20\n      mul\n      dup3\n      add\n    tag_74:\n      dup3\n      dup2\n      gt\n      iszero\n      tag_75\n      jumpi\n      dup3\n      mload\n      dup3\n      swap1\n      0xff\n      and\n      swap1\n      sstore\n      swap2\n      0x20\n      add\n      swap2\n      swap1\n      0x01\n      add\n      swap1\n      jump(tag_74)\n    tag_75:\n    tag_73:\n      pop\n      swap1\n      pop\n      tag_76\n      swap2\n      swap1\n      tag_77\n      jump\t// in\n    tag_76:\n      pop\n      swap1\n      jump\t// out\n    tag_69:\n      dup3\n      dup1\n      sload\n      dup3\n      dup3\n      sstore\n      swap1\n      0x00\n      mstore\n      keccak256(0x00, 0x20)\n      swap1\n      dup2\n      add\n      swap3\n      dup3\n      iszero\n      tag_78\n      jumpi\n      swap2\n      0x20\n      mul\n      dup3\n      add\n    tag_79:\n      dup3\n      dup2\n      gt\n      iszero\n      tag_80\n      jumpi\n      dup3\n      mload\n      dup3\n      swap1\n      0xff\n      and\n      swap1\n      sstore\n      swap2\n      0x20\n      add\n      swap2\n      swap1\n      0x01\n      add\n      swap1\n      jump(tag_79)\n    tag_80:\n    tag_78:\n      pop\n      swap1\n      pop\n      tag_81\n      swap2\n      swap1\n      tag_77\n      jump\t// in\n    tag_81:\n      pop\n      swap1\n      jump\t// out\n    tag_77:\n    tag_82:\n      dup1\n      dup3\n      gt\n      iszero\n      tag_83\n      jumpi\n      0x00\n      dup2\n      0x00\n      swap1\n      sstore\n      pop\n      0x01\n      add\n      jump(tag_82)\n    tag_83:\n      pop\n      swap1\n      jump\t// out\n        /* \"#utility.yul\":88:205   */\n    tag_85:\n        /* \"#utility.yul\":197:198   */\n      0x00\n        /* \"#utility.yul\":194:195   */\n      dup1\n        /* \"#utility.yul\":187:199   */\n      revert\n        /* \"#utility.yul\":334:411   */\n    tag_87:\n        /* \"#utility.yul\":371:378   */\n      0x00\n        /* \"#utility.yul\":400:405   */\n      dup2\n        /* \"#utility.yul\":389:405   */\n      swap1\n      pop\n        /* \"#utility.yul\":334:411   */\n      swap2\n      swap1\n      pop\n      jump\t// out\n        /* \"#utility.yul\":417:539   */\n    tag_88:\n        /* \"#utility.yul\":490:514   */\n      tag_101\n        /* \"#utility.yul\":508:513   */\n      dup2\n        /* \"#utility.yul\":490:514   */\n      tag_87\n      jump\t// in\n    tag_101:\n        /* \"#utility.yul\":483:488   */\n      dup2\n        /* \"#utility.yul\":480:515   */\n      eq\n        /* \"#utility.yul\":470:533   */\n      tag_102\n      jumpi\n        /* \"#utility.yul\":529:530   */\n      0x00\n        /* \"#utility.yul\":526:527   */\n      dup1\n        /* \"#utility.yul\":519:531   */\n      revert\n        /* \"#utility.yul\":470:533   */\n    tag_102:\n        /* \"#utility.yul\":417:539   */\n      pop\n      jump\t// out\n        /* \"#utility.yul\":545:684   */\n    tag_89:\n        /* \"#utility.yul\":591:596   */\n      0x00\n        /* \"#utility.yul\":629:635   */\n      dup2\n        /* \"#utility.yul\":616:636   */\n      calldataload\n        /* \"#utility.yul\":607:636   */\n      swap1\n      pop\n        /* \"#utility.yul\":645:678   */\n      tag_104\n        /* \"#utility.yul\":672:677   */\n      dup2\n        /* \"#utility.yul\":645:678   */\n      tag_88\n      jump\t// in\n    tag_104:\n        /* \"#utility.yul\":545:684   */\n      swap3\n      swap2\n      pop\n      pop\n      jump\t// out\n        /* \"#utility.yul\":690:1019   */\n    tag_8:\n        /* \"#utility.yul\":749:755   */\n      0x00\n        /* \"#utility.yul\":798:800   */\n      0x20\n        /* \"#utility.yul\":786:795   */\n      dup3\n        /* \"#utility.yul\":777:784   */\n      dup5\n        /* \"#utility.yul\":773:796   */\n      sub\n        /* \"#utility.yul\":769:801   */\n      slt\n        /* \"#utility.yul\":766:885   */\n      iszero\n      tag_106\n      jumpi\n        /* \"#utility.yul\":804:883   */\n      tag_107\n      tag_85\n      jump\t// in\n    tag_107:\n        /* \"#utility.yul\":766:885   */\n    tag_106:\n        /* \"#utility.yul\":924:925   */\n      0x00\n        /* \"#utility.yul\":949:1002   */\n      tag_108\n        /* \"#utility.yul\":994:1001   */\n      dup5\n        /* \"#utility.yul\":985:991   */\n      dup3\n        /* \"#utility.yul\":974:983   */\n      dup6\n        /* \"#utility.yul\":970:992   */\n      add\n        /* \"#utility.yul\":949:1002   */\n      tag_89\n      jump\t// in\n    tag_108:\n        /* \"#utility.yul\":939:1002   */\n      swap2\n      pop\n        /* \"#utility.yul\":895:1012   */\n      pop\n        /* \"#utility.yul\":690:1019   */\n      swap3\n      swap2\n      pop\n      pop\n      jump\t// out\n        /* \"#utility.yul\":1025:1143   */\n    tag_90:\n        /* \"#utility.yul\":1112:1136   */\n      tag_110\n        /* \"#utility.yul\":1130:1135   */\n      dup2\n        /* \"#utility.yul\":1112:1136   */\n      tag_87\n      jump\t// in\n    tag_110:\n        /* \"#utility.yul\":1107:1110   */\n      dup3\n        /* \"#utility.yul\":1100:1137   */\n      mstore\n        /* \"#utility.yul\":1025:1143   */\n      pop\n      pop\n      jump\t// out\n        /* \"#utility.yul\":1149:1371   */\n    tag_14:\n        /* \"#utility.yul\":1242:1246   */\n      0x00\n        /* \"#utility.yul\":1280:1282   */\n      0x20\n        /* \"#utility.yul\":1269:1278   */\n      dup3\n        /* \"#utility.yul\":1265:1283   */\n      add\n        /* \"#utility.yul\":1257:1283   */\n      swap1\n      pop\n        /* \"#utility.yul\":1293:1364   */\n      tag_112\n        /* \"#utility.yul\":1361:1362   */\n      0x00\n        /* \"#utility.yul\":1350:1359   */\n      dup4\n        /* \"#utility.yul\":1346:1363   */\n      add\n        /* \"#utility.yul\":1337:1343   */\n      dup5\n        /* \"#utility.yul\":1293:1364   */\n      tag_90\n      jump\t// in\n    tag_112:\n        /* \"#utility.yul\":1149:1371   */\n      swap3\n      swap2\n      pop\n      pop\n      jump\t// out\n        /* \"#utility.yul\":1377:1546   */\n    tag_91:\n        /* \"#utility.yul\":1461:1472   */\n      0x00\n        /* \"#utility.yul\":1495:1501   */\n      dup3\n        /* \"#utility.yul\":1490:1493   */\n      dup3\n        /* \"#utility.yul\":1483:1502   */\n      mstore\n        /* \"#utility.yul\":1535:1539   */\n      0x20\n        /* \"#utility.yul\":1530:1533   */\n      dup3\n        /* \"#utility.yul\":1526:1540   */\n      add\n        /* \"#utility.yul\":1511:1540   */\n      swap1\n      pop\n        /* \"#utility.yul\":1377:1546   */\n      swap3\n      swap2\n      pop\n      pop\n      jump\t// out\n        /* \"#utility.yul\":1552:1720   */\n    tag_92:\n        /* \"#utility.yul\":1692:1712   */\n      0x696e646578206f7574206f6620626f756e640000000000000000000000000000\n        /* \"#utility.yul\":1688:1689   */\n      0x00\n        /* \"#utility.yul\":1680:1686   */\n      dup3\n        /* \"#utility.yul\":1676:1690   */\n      add\n        /* \"#utility.yul\":1669:1713   */\n      mstore\n        /* \"#utility.yul\":1552:1720   */\n      pop\n      jump\t// out\n        /* \"#utility.yul\":1726:2092   */\n    tag_93:\n        /* \"#utility.yul\":1868:1871   */\n      0x00\n        /* \"#utility.yul\":1889:1956   */\n      tag_116\n        /* \"#utility.yul\":1953:1955   */\n      0x12\n        /* \"#utility.yul\":1948:1951   */\n      dup4\n        /* \"#utility.yul\":1889:1956   */\n      tag_91\n      jump\t// in\n    tag_116:\n        /* \"#utility.yul\":1882:1956   */\n      swap2\n      pop\n        /* \"#utility.yul\":1965:2058   */\n      tag_117\n        /* \"#utility.yul\":2054:2057   */\n      dup3\n        /* \"#utility.yul\":1965:2058   */\n      tag_92\n      jump\t// in\n    tag_117:\n        /* \"#utility.yul\":2083:2085   */\n      0x20\n        /* \"#utility.yul\":2078:2081   */\n      dup3\n        /* \"#utility.yul\":2074:2086   */\n      add\n        /* \"#utility.yul\":2067:2086   */\n      swap1\n      pop\n        /* \"#utility.yul\":1726:2092   */\n      swap2\n      swap1\n      pop\n      jump\t// out\n        /* \"#utility.yul\":2098:2517   */\n    tag_20:\n        /* \"#utility.yul\":2264:2268   */\n      0x00\n        /* \"#utility.yul\":2302:2304   */\n      0x20\n        /* \"#utility.yul\":2291:2300   */\n      dup3\n        /* \"#utility.yul\":2287:2305   */\n      add\n        /* \"#utility.yul\":2279:2305   */\n      swap1\n      pop\n        /* \"#utility.yul\":2351:2360   */\n      dup2\n        /* \"#utility.yul\":2345:2349   */\n      dup2\n        /* \"#utility.yul\":2341:2361   */\n      sub\n        /* \"#utility.yul\":2337:2338   */\n      0x00\n        /* \"#utility.yul\":2326:2335   */\n      dup4\n        /* \"#utility.yul\":2322:2339   */\n      add\n        /* \"#utility.yul\":2315:2362   */\n      mstore\n        /* \"#utility.yul\":2379:2510   */\n      tag_119\n        /* \"#utility.yul\":2505:2509   */\n      dup2\n        /* \"#utility.yul\":2379:2510   */\n      tag_93\n      jump\t// in\n    tag_119:\n        /* \"#utility.yul\":2371:2510   */\n      swap1\n      pop\n        /* \"#utility.yul\":2098:2517   */\n      swap2\n      swap1\n      pop\n      jump\t// out\n        /* \"#utility.yul\":2523:2703   */\n    tag_94:\n        /* \"#utility.yul\":2571:2648   */\n      0x4e487b7100000000000000000000000000000000000000000000000000000000\n        /* \"#utility.yul\":2568:2569   */\n      0x00\n        /* \"#utility.yul\":2561:2649   */\n      mstore\n        /* \"#utility.yul\":2668:2672   */\n      0x11\n        /* \"#utility.yul\":2665:2666   */\n      0x04\n        /* \"#utility.yul\":2658:2673   */\n      mstore\n        /* \"#utility.yul\":2692:2696   */\n      0x24\n        /* \"#utility.yul\":2689:2690   */\n      0x00\n        /* \"#utility.yul\":2682:2697   */\n      revert\n        /* \"#utility.yul\":2709:2903   */\n    tag_25:\n        /* \"#utility.yul\":2749:2753   */\n      0x00\n        /* \"#utility.yul\":2769:2789   */\n      tag_122\n        /* \"#utility.yul\":2787:2788   */\n      dup3\n        /* \"#utility.yul\":2769:2789   */\n      tag_87\n      jump\t// in\n    tag_122:\n        /* \"#utility.yul\":2764:2789   */\n      swap2\n      pop\n        /* \"#utility.yul\":2803:2823   */\n      tag_123\n        /* \"#utility.yul\":2821:2822   */\n      dup4\n        /* \"#utility.yul\":2803:2823   */\n      tag_87\n      jump\t// in\n    tag_123:\n        /* \"#utility.yul\":2798:2823   */\n      swap3\n      pop\n        /* \"#utility.yul\":2847:2848   */\n      dup3\n        /* \"#utility.yul\":2844:2845   */\n      dup3\n        /* \"#utility.yul\":2840:2849   */\n      sub\n        /* \"#utility.yul\":2832:2849   */\n      swap1\n      pop\n        /* \"#utility.yul\":2871:2872   */\n      dup2\n        /* \"#utility.yul\":2865:2869   */\n      dup2\n        /* \"#utility.yul\":2862:2873   */\n      gt\n        /* \"#utility.yul\":2859:2896   */\n      iszero\n      tag_124\n      jumpi\n        /* \"#utility.yul\":2876:2894   */\n      tag_125\n      tag_94\n      jump\t// in\n    tag_125:\n        /* \"#utility.yul\":2859:2896   */\n    tag_124:\n        /* \"#utility.yul\":2709:2903   */\n      swap3\n      swap2\n      pop\n      pop\n      jump\t// out\n        /* \"#utility.yul\":2909:3100   */\n    tag_27:\n        /* \"#utility.yul\":2949:2952   */\n      0x00\n        /* \"#utility.yul\":2968:2988   */\n      tag_127\n        /* \"#utility.yul\":2986:2987   */\n      dup3\n        /* \"#utility.yul\":2968:2988   */\n      tag_87\n      jump\t// in\n    tag_127:\n        /* \"#utility.yul\":2963:2988   */\n      swap2\n      pop\n        /* \"#utility.yul\":3002:3022   */\n      tag_128\n        /* \"#utility.yul\":3020:3021   */\n      dup4\n        /* \"#utility.yul\":3002:3022   */\n      tag_87\n      jump\t// in\n    tag_128:\n        /* \"#utility.yul\":2997:3022   */\n      swap3\n      pop\n        /* \"#utility.yul\":3045:3046   */\n      dup3\n        /* \"#utility.yul\":3042:3043   */\n      dup3\n        /* \"#utility.yul\":3038:3047   */\n      add\n        /* \"#utility.yul\":3031:3047   */\n      swap1\n      pop\n        /* \"#utility.yul\":3066:3069   */\n      dup1\n        /* \"#utility.yul\":3063:3064   */\n      dup3\n        /* \"#utility.yul\":3060:3070   */\n      gt\n        /* \"#utility.yul\":3057:3093   */\n      iszero\n      tag_129\n      jumpi\n        /* \"#utility.yul\":3073:3091   */\n      tag_130\n      tag_94\n      jump\t// in\n    tag_130:\n        /* \"#utility.yul\":3057:3093   */\n    tag_129:\n        /* \"#utility.yul\":2909:3100   */\n      swap3\n      swap2\n      pop\n      pop\n      jump\t// out\n        /* \"#utility.yul\":3106:3286   */\n    tag_30:\n        /* \"#utility.yul\":3154:3231   */\n      0x4e487b7100000000000000000000000000000000000000000000000000000000\n        /* \"#utility.yul\":3151:3152   */\n      0x00\n        /* \"#utility.yul\":3144:3232   */\n      mstore\n        /* \"#utility.yul\":3251:3255   */\n      0x32\n        /* \"#utility.yul\":3248:3249   */\n      0x04\n        /* \"#utility.yul\":3241:3256   */\n      mstore\n        /* \"#utility.yul\":3275:3279   */\n      0x24\n        /* \"#utility.yul\":3272:3273   */\n      0x00\n        /* \"#utility.yul\":3265:3280   */\n      revert\n        /* \"#utility.yul\":3292:3472   */\n    tag_37:\n        /* \"#utility.yul\":3340:3417   */\n      0x4e487b7100000000000000000000000000000000000000000000000000000000\n        /* \"#utility.yul\":3337:3338   */\n      0x00\n        /* \"#utility.yul\":3330:3418   */\n      mstore\n        /* \"#utility.yul\":3437:3441   */\n      0x31\n        /* \"#utility.yul\":3434:3435   */\n      0x04\n        /* \"#utility.yul\":3427:3442   */\n      mstore\n        /* \"#utility.yul\":3461:3465   */\n      0x24\n        /* \"#utility.yul\":3458:3459   */\n      0x00\n        /* \"#utility.yul\":3451:3466   */\n      revert\n        /* \"#utility.yul\":3478:3658   */\n    tag_50:\n        /* \"#utility.yul\":3526:3603   */\n      0x4e487b7100000000000000000000000000000000000000000000000000000000\n        /* \"#utility.yul\":3523:3524   */\n      0x00\n        /* \"#utility.yul\":3516:3604   */\n      mstore\n        /* \"#utility.yul\":3623:3627   */\n      0x01\n        /* \"#utility.yul\":3620:3621   */\n      0x04\n        /* \"#utility.yul\":3613:3628   */\n      mstore\n        /* \"#utility.yul\":3647:3651   */\n      0x24\n        /* \"#utility.yul\":3644:3645   */\n      0x00\n        /* \"#utility.yul\":3637:3652   */\n      revert\n\n    auxdata: 0xa2646970667358221220ae7ef40be2608dff59837f5290f440e3e3ddde4984b1ba30ae79b0e04126435c64736f6c634300081a0033\n}\n",
				"bytecode": {
					"linkReferences": {},
					"object": "6080604052348015600e575f80fd5b506106038061001c5f395ff3fe608060405234801561000f575f80fd5b506004361061003f575f3560e01c80634cc822151461004357806371e5ee5f1461005f578063f8a8fd6d1461008f575b5f80fd5b61005d600480360381019061005891906103e8565b610099565b005b610079600480360381019061007491906103e8565b610178565b6040516100869190610422565b60405180910390f35b610097610197565b005b5f8054905081106100df576040517f08c379a00000000000000000000000000000000000000000000000000000000081526004016100d690610495565b60405180910390fd5b5f8190505b60015f805490506100f591906104e0565b811015610150575f60018261010a9190610513565b8154811061011b5761011a610546565b5b905f5260205f2001545f828154811061013757610136610546565b5b905f5260205f20018190555080806001019150506100e4565b505f80548061016257610161610573565b5b600190038181905f5260205f20015f9055905550565b5f8181548110610186575f80fd5b905f5260205f20015f915090505481565b6040518060a00160405280600160ff168152602001600260ff168152602001600360ff168152602001600460ff168152602001600560ff168152505f9060056101e19291906102f6565b506101ec6002610099565b60015f808154811061020157610200610546565b5b905f5260205f20015414610218576102176105a0565b5b60025f60018154811061022e5761022d610546565b5b905f5260205f20015414610245576102446105a0565b5b60045f60028154811061025b5761025a610546565b5b905f5260205f20015414610272576102716105a0565b5b60055f60038154811061028857610287610546565b5b905f5260205f2001541461029f5761029e6105a0565b5b60045f80549050146102b4576102b36105a0565b5b6040518060200160405280600160ff168152505f9060016102d6929190610346565b506102e05f610099565b5f8080549050146102f4576102f36105a0565b5b565b828054828255905f5260205f20908101928215610335579160200282015b82811115610334578251829060ff16905591602001919060010190610314565b5b5090506103429190610396565b5090565b828054828255905f5260205f20908101928215610385579160200282015b82811115610384578251829060ff16905591602001919060010190610364565b5b5090506103929190610396565b5090565b5b808211156103ad575f815f905550600101610397565b5090565b5f80fd5b5f819050919050565b6103c7816103b5565b81146103d1575f80fd5b50565b5f813590506103e2816103be565b92915050565b5f602082840312156103fd576103fc6103b1565b5b5f61040a848285016103d4565b91505092915050565b61041c816103b5565b82525050565b5f6020820190506104355f830184610413565b92915050565b5f82825260208201905092915050565b7f696e646578206f7574206f6620626f756e6400000000000000000000000000005f82015250565b5f61047f60128361043b565b915061048a8261044b565b602082019050919050565b5f6020820190508181035f8301526104ac81610473565b9050919050565b7f4e487b71000000000000000000000000000000000000000000000000000000005f52601160045260245ffd5b5f6104ea826103b5565b91506104f5836103b5565b925082820390508181111561050d5761050c6104b3565b5b92915050565b5f61051d826103b5565b9150610528836103b5565b92508282019050808211156105405761053f6104b3565b5b92915050565b7f4e487b71000000000000000000000000000000000000000000000000000000005f52603260045260245ffd5b7f4e487b71000000000000000000000000000000000000000000000000000000005f52603160045260245ffd5b7f4e487b71000000000000000000000000000000000000000000000000000000005f52600160045260245ffdfea2646970667358221220ae7ef40be2608dff59837f5290f440e3e3ddde4984b1ba30ae79b0e04126435c64736f6c634300081a0033",
					"opcodes": "PUSH1 0x80 PUSH1 0x40 MSTORE CALLVALUE DUP1 ISZERO PUSH1 0xE JUMPI PUSH0 DUP1 REVERT JUMPDEST POP PUSH2 0x603 DUP1 PUSH2 0x1C PUSH0 CODECOPY PUSH0 RETURN INVALID PUSH1 0x80 PUSH1 0x40 MSTORE CALLVALUE DUP1 ISZERO PUSH2 0xF JUMPI PUSH0 DUP1 REVERT JUMPDEST POP PUSH1 0x4 CALLDATASIZE LT PUSH2 0x3F JUMPI PUSH0 CALLDATALOAD PUSH1 0xE0 SHR DUP1 PUSH4 0x4CC82215 EQ PUSH2 0x43 JUMPI DUP1 PUSH4 0x71E5EE5F EQ PUSH2 0x5F JUMPI DUP1 PUSH4 0xF8A8FD6D EQ PUSH2 0x8F JUMPI JUMPDEST PUSH0 DUP1 REVERT JUMPDEST PUSH2 0x5D PUSH1 0x4 DUP1 CALLDATASIZE SUB DUP2 ADD SWAP1 PUSH2 0x58 SWAP2 SWAP1 PUSH2 0x3E8 JUMP JUMPDEST PUSH2 0x99 JUMP JUMPDEST STOP JUMPDEST PUSH2 0x79 PUSH1 0x4 DUP1 CALLDATASIZE SUB DUP2 ADD SWAP1 PUSH2 0x74 SWAP2 SWAP1 PUSH2 0x3E8 JUMP JUMPDEST PUSH2 0x178 JUMP JUMPDEST PUSH1 0x40 MLOAD PUSH2 0x86 SWAP2 SWAP1 PUSH2 0x422 JUMP JUMPDEST PUSH1 0x40 MLOAD DUP1 SWAP2 SUB SWAP1 RETURN JUMPDEST PUSH2 0x97 PUSH2 0x197 JUMP JUMPDEST STOP JUMPDEST PUSH0 DUP1 SLOAD SWAP1 POP DUP2 LT PUSH2 0xDF JUMPI PUSH1 0x40 MLOAD PUSH32 0x8C379A000000000000000000000000000000000000000000000000000000000 DUP2 MSTORE PUSH1 0x4 ADD PUSH2 0xD6 SWAP1 PUSH2 0x495 JUMP JUMPDEST PUSH1 0x40 MLOAD DUP1 SWAP2 SUB SWAP1 REVERT JUMPDEST PUSH0 DUP2 SWAP1 POP JUMPDEST PUSH1 0x1 PUSH0 DUP1 SLOAD SWAP1 POP PUSH2 0xF5 SWAP2 SWAP1 PUSH2 0x4E0 JUMP JUMPDEST DUP2 LT ISZERO PUSH2 0x150 JUMPI PUSH0 PUSH1 0x1 DUP3 PUSH2 0x10A SWAP2 SWAP1 PUSH2 0x513 JUMP JUMPDEST DUP2 SLOAD DUP2 LT PUSH2 0x11B JUMPI PUSH2 0x11A PUSH2 0x546 JUMP JUMPDEST JUMPDEST SWAP1 PUSH0 MSTORE PUSH1 0x20 PUSH0 KECCAK256 ADD SLOAD PUSH0 DUP3 DUP2 SLOAD DUP2 LT PUSH2 0x137 JUMPI PUSH2 0x136 PUSH2 0x546 JUMP JUMPDEST JUMPDEST SWAP1 PUSH0 MSTORE PUSH1 0x20 PUSH0 KECCAK256 ADD DUP2 SWAP1 SSTORE POP DUP1 DUP1 PUSH1 0x1 ADD SWAP2 POP POP PUSH2 0xE4 JUMP JUMPDEST POP PUSH0 DUP1 SLOAD DUP1 PUSH2 0x162 JUMPI PUSH2 0x161 PUSH2 0x573 JUMP JUMPDEST JUMPDEST PUSH1 0x1 SWAP1 SUB DUP2 DUP2 SWAP1 PUSH0 MSTORE PUSH1 0x20 PUSH0 KECCAK256 ADD PUSH0 SWAP1 SSTORE SWAP1 SSTORE POP JUMP JUMPDEST PUSH0 DUP2 DUP2 SLOAD DUP2 LT PUSH2 0x186 JUMPI PUSH0 DUP1 REVERT JUMPDEST SWAP1 PUSH0 MSTORE PUSH1 0x20 PUSH0 KECCAK256 ADD PUSH0 SWAP2 POP SWAP1 POP SLOAD DUP2 JUMP JUMPDEST PUSH1 0x40 MLOAD DUP1 PUSH1 0xA0 ADD PUSH1 0x40 MSTORE DUP1 PUSH1 0x1 PUSH1 0xFF AND DUP2 MSTORE PUSH1 0x20 ADD PUSH1 0x2 PUSH1 0xFF AND DUP2 MSTORE PUSH1 0x20 ADD PUSH1 0x3 PUSH1 0xFF AND DUP2 MSTORE PUSH1 0x20 ADD PUSH1 0x4 PUSH1 0xFF AND DUP2 MSTORE PUSH1 0x20 ADD PUSH1 0x5 PUSH1 0xFF AND DUP2 MSTORE POP PUSH0 SWAP1 PUSH1 0x5 PUSH2 0x1E1 SWAP3 SWAP2 SWAP1 PUSH2 0x2F6 JUMP JUMPDEST POP PUSH2 0x1EC PUSH1 0x2 PUSH2 0x99 JUMP JUMPDEST PUSH1 0x1 PUSH0 DUP1 DUP2 SLOAD DUP2 LT PUSH2 0x201 JUMPI PUSH2 0x200 PUSH2 0x546 JUMP JUMPDEST JUMPDEST SWAP1 PUSH0 MSTORE PUSH1 0x20 PUSH0 KECCAK256 ADD SLOAD EQ PUSH2 0x218 JUMPI PUSH2 0x217 PUSH2 0x5A0 JUMP JUMPDEST JUMPDEST PUSH1 0x2 PUSH0 PUSH1 0x1 DUP2 SLOAD DUP2 LT PUSH2 0x22E JUMPI PUSH2 0x22D PUSH2 0x546 JUMP JUMPDEST JUMPDEST SWAP1 PUSH0 MSTORE PUSH1 0x20 PUSH0 KECCAK256 ADD SLOAD EQ PUSH2 0x245 JUMPI PUSH2 0x244 PUSH2 0x5A0 JUMP JUMPDEST JUMPDEST PUSH1 0x4 PUSH0 PUSH1 0x2 DUP2 SLOAD DUP2 LT PUSH2 0x25B JUMPI PUSH2 0x25A PUSH2 0x546 JUMP JUMPDEST JUMPDEST SWAP1 PUSH0 MSTORE PUSH1 0x20 PUSH0 KECCAK256 ADD SLOAD EQ PUSH2 0x272 JUMPI PUSH2 0x271 PUSH2 0x5A0 JUMP JUMPDEST JUMPDEST PUSH1 0x5 PUSH0 PUSH1 0x3 DUP2 SLOAD DUP2 LT PUSH2 0x288 JUMPI PUSH2 0x287 PUSH2 0x546 JUMP JUMPDEST JUMPDEST SWAP1 PUSH0 MSTORE PUSH1 0x20 PUSH0 KECCAK256 ADD SLOAD EQ PUSH2 0x29F JUMPI PUSH2 0x29E PUSH2 0x5A0 JUMP JUMPDEST JUMPDEST PUSH1 0x4 PUSH0 DUP1 SLOAD SWAP1 POP EQ PUSH2 0x2B4 JUMPI PUSH2 0x2B3 PUSH2 0x5A0 JUMP JUMPDEST JUMPDEST PUSH1 0x40 MLOAD DUP1 PUSH1 0x20 ADD PUSH1 0x40 MSTORE DUP1 PUSH1 0x1 PUSH1 0xFF AND DUP2 MSTORE POP PUSH0 SWAP1 PUSH1 0x1 PUSH2 0x2D6 SWAP3 SWAP2 SWAP1 PUSH2 0x346 JUMP JUMPDEST POP PUSH2 0x2E0 PUSH0 PUSH2 0x99 JUMP JUMPDEST PUSH0 DUP1 DUP1 SLOAD SWAP1 POP EQ PUSH2 0x2F4 JUMPI PUSH2 0x2F3 PUSH2 0x5A0 JUMP JUMPDEST JUMPDEST JUMP JUMPDEST DUP3 DUP1 SLOAD DUP3 DUP3 SSTORE SWAP1 PUSH0 MSTORE PUSH1 0x20 PUSH0 KECCAK256 SWAP1 DUP2 ADD SWAP3 DUP3 ISZERO PUSH2 0x335 JUMPI SWAP2 PUSH1 0x20 MUL DUP3 ADD JUMPDEST DUP3 DUP2 GT ISZERO PUSH2 0x334 JUMPI DUP3 MLOAD DUP3 SWAP1 PUSH1 0xFF AND SWAP1 SSTORE SWAP2 PUSH1 0x20 ADD SWAP2 SWAP1 PUSH1 0x1 ADD SWAP1 PUSH2 0x314 JUMP JUMPDEST JUMPDEST POP SWAP1 POP PUSH2 0x342 SWAP2 SWAP1 PUSH2 0x396 JUMP JUMPDEST POP SWAP1 JUMP JUMPDEST DUP3 DUP1 SLOAD DUP3 DUP3 SSTORE SWAP1 PUSH0 MSTORE PUSH1 0x20 PUSH0 KECCAK256 SWAP1 DUP2 ADD SWAP3 DUP3 ISZERO PUSH2 0x385 JUMPI SWAP2 PUSH1 0x20 MUL DUP3 ADD JUMPDEST DUP3 DUP2 GT ISZERO PUSH2 0x384 JUMPI DUP3 MLOAD DUP3 SWAP1 PUSH1 0xFF AND SWAP1 SSTORE SWAP2 PUSH1 0x20 ADD SWAP2 SWAP1 PUSH1 0x1 ADD SWAP1 PUSH2 0x364 JUMP JUMPDEST JUMPDEST POP SWAP1 POP PUSH2 0x392 SWAP2 SWAP1 PUSH2 0x396 JUMP JUMPDEST POP SWAP1 JUMP JUMPDEST JUMPDEST DUP1 DUP3 GT ISZERO PUSH2 0x3AD JUMPI PUSH0 DUP2 PUSH0 SWAP1 SSTORE POP PUSH1 0x1 ADD PUSH2 0x397 JUMP JUMPDEST POP SWAP1 JUMP JUMPDEST PUSH0 DUP1 REVERT JUMPDEST PUSH0 DUP2 SWAP1 POP SWAP2 SWAP1 POP JUMP JUMPDEST PUSH2 0x3C7 DUP2 PUSH2 0x3B5 JUMP JUMPDEST DUP2 EQ PUSH2 0x3D1 JUMPI PUSH0 DUP1 REVERT JUMPDEST POP JUMP JUMPDEST PUSH0 DUP2 CALLDATALOAD SWAP1 POP PUSH2 0x3E2 DUP2 PUSH2 0x3BE JUMP JUMPDEST SWAP3 SWAP2 POP POP JUMP JUMPDEST PUSH0 PUSH1 0x20 DUP3 DUP5 SUB SLT ISZERO PUSH2 0x3FD JUMPI PUSH2 0x3FC PUSH2 0x3B1 JUMP JUMPDEST JUMPDEST PUSH0 PUSH2 0x40A DUP5 DUP3 DUP6 ADD PUSH2 0x3D4 JUMP JUMPDEST SWAP2 POP POP SWAP3 SWAP2 POP POP JUMP JUMPDEST PUSH2 0x41C DUP2 PUSH2 0x3B5 JUMP JUMPDEST DUP3 MSTORE POP POP JUMP JUMPDEST PUSH0 PUSH1 0x20 DUP3 ADD SWAP1 POP PUSH2 0x435 PUSH0 DUP4 ADD DUP5 PUSH2 0x413 JUMP JUMPDEST SWAP3 SWAP2 POP POP JUMP JUMPDEST PUSH0 DUP3 DUP3 MSTORE PUSH1 0x20 DUP3 ADD SWAP1 POP SWAP3 SWAP2 POP POP JUMP JUMPDEST PUSH32 0x696E646578206F7574206F6620626F756E640000000000000000000000000000 PUSH0 DUP3 ADD MSTORE POP JUMP JUMPDEST PUSH0 PUSH2 0x47F PUSH1 0x12 DUP4 PUSH2 0x43B JUMP JUMPDEST SWAP2 POP PUSH2 0x48A DUP3 PUSH2 0x44B JUMP JUMPDEST PUSH1 0x20 DUP3 ADD SWAP1 POP SWAP2 SWAP1 POP JUMP JUMPDEST PUSH0 PUSH1 0x20 DUP3 ADD SWAP1 POP DUP2 DUP2 SUB PUSH0 DUP4 ADD MSTORE PUSH2 0x4AC DUP2 PUSH2 0x473 JUMP JUMPDEST SWAP1 POP SWAP2 SWAP1 POP JUMP JUMPDEST PUSH32 0x4E487B7100000000000000000000000000000000000000000000000000000000 PUSH0 MSTORE PUSH1 0x11 PUSH1 0x4 MSTORE PUSH1 0x24 PUSH0 REVERT JUMPDEST PUSH0 PUSH2 0x4EA DUP3 PUSH2 0x3B5 JUMP JUMPDEST SWAP2 POP PUSH2 0x4F5 DUP4 PUSH2 0x3B5 JUMP JUMPDEST SWAP3 POP DUP3 DUP3 SUB SWAP1 POP DUP2 DUP2 GT ISZERO PUSH2 0x50D JUMPI PUSH2 0x50C PUSH2 0x4B3 JUMP JUMPDEST JUMPDEST SWAP3 SWAP2 POP POP JUMP JUMPDEST PUSH0 PUSH2 0x51D DUP3 PUSH2 0x3B5 JUMP JUMPDEST SWAP2 POP PUSH2 0x528 DUP4 PUSH2 0x3B5 JUMP JUMPDEST SWAP3 POP DUP3 DUP3 ADD SWAP1 POP DUP1 DUP3 GT ISZERO PUSH2 0x540 JUMPI PUSH2 0x53F PUSH2 0x4B3 JUMP JUMPDEST JUMPDEST SWAP3 SWAP2 POP POP JUMP JUMPDEST PUSH32 0x4E487B7100000000000000000000000000000000000000000000000000000000 PUSH0 MSTORE PUSH1 0x32 PUSH1 0x4 MSTORE PUSH1 0x24 PUSH0 REVERT JUMPDEST PUSH32 0x4E487B7100000000000000000000000000000000000000000000000000000000 PUSH0 MSTORE PUSH1 0x31 PUSH1 0x4 MSTORE PUSH1 0x24 PUSH0 REVERT JUMPDEST PUSH32 0x4E487B7100000000000000000000000000000000000000000000000000000000 PUSH0 MSTORE PUSH1 0x1 PUSH1 0x4 MSTORE PUSH1 0x24 PUSH0 REVERT INVALID LOG2 PUSH5 0x6970667358 0x22 SLT KECCAK256 0xAE PUSH31 0xF40BE2608DFF59837F5290F440E3E3DDDE4984B1BA30AE79B0E04126435C64 PUSH20 0x6F6C634300081A00330000000000000000000000 "
				},
				"gasEstimates": {
					"creation": {
						"codeDepositCost": "307800",
						"executionCost": "347",
						"totalCost": "308147"
					},
					"external": {
						"arr(uint256)": "infinite",
						"remove(uint256)": "infinite",
						"test()": "infinite"
					}
				},
				"methodIdentifiers": {
					"arr(uint256)": "71e5ee5f",
					"remove(uint256)": "4cc82215",
					"test()": "f8a8fd6d"
				}
			},
			"storageLayout": {
				"storage": [
					{
						"astId": 96,
						"contract": "contracts/array.sol:ArrayRemoveByShifting",
						"label": "arr",
						"offset": 0,
						"slot": "0",
						"type": "t_array(t_uint256)dyn_storage"
					}
				],
				"types": {
					"t_array(t_uint256)dyn_storage": {
						"base": "t_uint256",
						"encoding": "dynamic_array",
						"label": "uint256[]",
						"numberOfBytes": "32"
					},
					"t_uint256": {
						"encoding": "inplace",
						"label": "uint256",
						"numberOfBytes": "32"
					}
				}
			},
			"userdoc": {
				"kind": "user",
				"methods": {},
				"version": 1
			}
		}
	}
}